{
  "contractName": "Calculator",
  "abi": [
    {
      "inputs": [
        {
          "internalType": "uint256",
          "name": "num",
          "type": "uint256"
        }
      ],
      "name": "add",
      "outputs": [],
      "stateMutability": "nonpayable",
      "type": "function"
    },
    {
      "inputs": [
        {
          "internalType": "uint256",
          "name": "num",
          "type": "uint256"
        }
      ],
      "name": "subtract",
      "outputs": [],
      "stateMutability": "nonpayable",
      "type": "function"
    },
    {
      "inputs": [
        {
          "internalType": "uint256",
          "name": "num",
          "type": "uint256"
        }
      ],
      "name": "multiply",
      "outputs": [],
      "stateMutability": "nonpayable",
      "type": "function"
    },
    {
      "inputs": [],
      "name": "get",
      "outputs": [
        {
          "internalType": "uint256",
          "name": "",
          "type": "uint256"
        }
      ],
      "stateMutability": "view",
      "type": "function"
    }
  ],
  "bytecode": "0x60806040525f8055348015610012575f80fd5b506102aa806100205f395ff3fe608060405234801561000f575f80fd5b506004361061004a575f3560e01c80631003e2d21461004e5780631dc05f171461006a5780636d4ce63c14610086578063c6888fa1146100a4575b5f80fd5b6100686004803603810190610063919061014d565b6100c0565b005b610084600480360381019061007f919061014d565b6100da565b005b61008e6100f4565b60405161009b9190610187565b60405180910390f35b6100be60048036038101906100b9919061014d565b6100fc565b005b805f808282546100d091906101cd565b9250508190555050565b805f808282546100ea9190610200565b9250508190555050565b5f8054905090565b805f8082825461010c9190610233565b9250508190555050565b5f80fd5b5f819050919050565b61012c8161011a565b8114610136575f80fd5b50565b5f8135905061014781610123565b92915050565b5f6020828403121561016257610161610116565b5b5f61016f84828501610139565b91505092915050565b6101818161011a565b82525050565b5f60208201905061019a5f830184610178565b92915050565b7f4e487b71000000000000000000000000000000000000000000000000000000005f52601160045260245ffd5b5f6101d78261011a565b91506101e28361011a565b92508282019050808211156101fa576101f96101a0565b5b92915050565b5f61020a8261011a565b91506102158361011a565b925082820390508181111561022d5761022c6101a0565b5b92915050565b5f61023d8261011a565b91506102488361011a565b92508282026102568161011a565b9150828204841483151761026d5761026c6101a0565b5b509291505056fea26469706673582212204714bf2e51c2aaedff004d0975635267e06e19230976dd66b574fe2e211f579364736f6c63430008150033",
  "immutableReferences": {},
  "source": "//SPDX-License-Identifier: MIT\n\npragma solidity ^0.8.21;\n\ncontract Calculator {\n\n    uint256 result = 0;\n\n    function add( uint256 num) public {\n        result += num;\n    }\n    function subtract(uint256 num) public {\n        result -= num;\n    }\n    function multiply(uint256 num) public {\n        result *= num;\n    }\n    \n    function get() public view returns (uint256) {\n        return result;\n    }\n}",
  "sourcePath": "/home/stephen/Development/Code/project/DavenbarnChain2023/backend/contracts/Calculator.sol",
  "compiler": {
    "name": "solc",
    "version": "0.8.21+commit.d9974bed.Emscripten.clang"
  },
  "schemaVersion": "3.4.16",
  "updatedAt": "2023-11-06T17:15:16.176Z",
  "devdoc": {
    "kind": "dev",
    "methods": {},
    "version": 1
  },
  "userdoc": {
    "kind": "user",
    "methods": {},
    "version": 1
  }
}