{
  "contractName": "HelloWorld",
  "abi": [
    {
      "inputs": [],
      "name": "amount",
      "outputs": [
        {
          "internalType": "uint256",
          "name": "",
          "type": "uint256"
        }
      ],
      "stateMutability": "view",
      "type": "function"
    },
    {
      "inputs": [],
      "name": "greet",
      "outputs": [
        {
          "internalType": "string",
          "name": "",
          "type": "string"
        }
      ],
      "stateMutability": "view",
      "type": "function"
    },
    {
      "inputs": [],
      "name": "sender",
      "outputs": [
        {
          "internalType": "address",
          "name": "",
          "type": "address"
        }
      ],
      "stateMutability": "view",
      "type": "function"
    },
    {
      "inputs": [],
      "name": "pay",
      "outputs": [],
      "stateMutability": "payable",
      "type": "function"
    },
    {
      "inputs": [],
      "name": "fail",
      "outputs": [],
      "stateMutability": "nonpayable",
      "type": "function"
    }
  ],
  "bytecode": "0x60806040526040518060400160405280600b81526020017f48656c6c6f20776f726c640000000000000000000000000000000000000000008152505f9081620000499190620002c1565b5034801562000056575f80fd5b50620003a5565b5f81519050919050565b7f4e487b71000000000000000000000000000000000000000000000000000000005f52604160045260245ffd5b7f4e487b71000000000000000000000000000000000000000000000000000000005f52602260045260245ffd5b5f6002820490506001821680620000d957607f821691505b602082108103620000ef57620000ee62000094565b5b50919050565b5f819050815f5260205f209050919050565b5f6020601f8301049050919050565b5f82821b905092915050565b5f60088302620001537fffffffffffffffffffffffffffffffffffffffffffffffffffffffffffffffff8262000116565b6200015f868362000116565b95508019841693508086168417925050509392505050565b5f819050919050565b5f819050919050565b5f620001a9620001a36200019d8462000177565b62000180565b62000177565b9050919050565b5f819050919050565b620001c48362000189565b620001dc620001d382620001b0565b84845462000122565b825550505050565b5f90565b620001f2620001e4565b620001ff818484620001b9565b505050565b5b8181101562000226576200021a5f82620001e8565b60018101905062000205565b5050565b601f82111562000275576200023f81620000f5565b6200024a8462000107565b810160208510156200025a578190505b62000272620002698562000107565b83018262000204565b50505b505050565b5f82821c905092915050565b5f620002975f19846008026200027a565b1980831691505092915050565b5f620002b1838362000286565b9150826002028217905092915050565b620002cc826200005d565b67ffffffffffffffff811115620002e857620002e762000067565b5b620002f48254620000c1565b620003018282856200022a565b5f60209050601f83116001811462000337575f841562000322578287015190505b6200032e8582620002a4565b8655506200039d565b601f1984166200034786620000f5565b5f5b82811015620003705784890151825560018201915060208501945060208101905062000349565b868310156200039057848901516200038c601f89168262000286565b8355505b6001600288020188555050505b505050505050565b61071080620003b35f395ff3fe608060405260043610610049575f3560e01c80631b9265b81461004d57806367e404ce14610057578063a9cc471814610081578063aa8c217c14610097578063cfae3217146100c1575b5f80fd5b6100556100eb565b005b348015610062575f80fd5b5061006b610134565b6040516100789190610288565b60405180910390f35b34801561008c575f80fd5b50610095610159565b005b3480156100a2575f80fd5b506100ab6101b8565b6040516100b891906102b9565b60405180910390f35b3480156100cc575f80fd5b506100d56101be565b6040516100e2919061035c565b60405180910390f35b3360015f6101000a81548173ffffffffffffffffffffffffffffffffffffffff021916908373ffffffffffffffffffffffffffffffffffffffff16021790555034600281905550565b60015f9054906101000a900473ffffffffffffffffffffffffffffffffffffffff1681565b5f610199576040517f08c379a0000000000000000000000000000000000000000000000000000000008152600401610190906103c6565b60405180910390fd5b60405180602001604052805f8152505f90816101b5919061060b565b50565b60025481565b5f80546101ca9061043e565b80601f01602080910402602001604051908101604052809291908181526020018280546101f69061043e565b80156102415780601f1061021857610100808354040283529160200191610241565b820191905f5260205f20905b81548152906001019060200180831161022457829003601f168201915b505050505081565b5f73ffffffffffffffffffffffffffffffffffffffff82169050919050565b5f61027282610249565b9050919050565b61028281610268565b82525050565b5f60208201905061029b5f830184610279565b92915050565b5f819050919050565b6102b3816102a1565b82525050565b5f6020820190506102cc5f8301846102aa565b92915050565b5f81519050919050565b5f82825260208201905092915050565b5f5b838110156103095780820151818401526020810190506102ee565b5f8484015250505050565b5f601f19601f8301169050919050565b5f61032e826102d2565b61033881856102dc565b93506103488185602086016102ec565b61035181610314565b840191505092915050565b5f6020820190508181035f8301526103748184610324565b905092915050565b7f464149494c4544204845524500000000000000000000000000000000000000005f82015250565b5f6103b0600c836102dc565b91506103bb8261037c565b602082019050919050565b5f6020820190508181035f8301526103dd816103a4565b9050919050565b7f4e487b71000000000000000000000000000000000000000000000000000000005f52604160045260245ffd5b7f4e487b71000000000000000000000000000000000000000000000000000000005f52602260045260245ffd5b5f600282049050600182168061045557607f821691505b60208210810361046857610467610411565b5b50919050565b5f819050815f5260205f209050919050565b5f6020601f8301049050919050565b5f82821b905092915050565b5f600883026104ca7fffffffffffffffffffffffffffffffffffffffffffffffffffffffffffffffff8261048f565b6104d4868361048f565b95508019841693508086168417925050509392505050565b5f819050919050565b5f61050f61050a610505846102a1565b6104ec565b6102a1565b9050919050565b5f819050919050565b610528836104f5565b61053c61053482610516565b84845461049b565b825550505050565b5f90565b610550610544565b61055b81848461051f565b505050565b5b8181101561057e576105735f82610548565b600181019050610561565b5050565b601f8211156105c3576105948161046e565b61059d84610480565b810160208510156105ac578190505b6105c06105b885610480565b830182610560565b50505b505050565b5f82821c905092915050565b5f6105e35f19846008026105c8565b1980831691505092915050565b5f6105fb83836105d4565b9150826002028217905092915050565b610614826102d2565b67ffffffffffffffff81111561062d5761062c6103e4565b5b610637825461043e565b610642828285610582565b5f60209050601f831160018114610673575f8415610661578287015190505b61066b85826105f0565b8655506106d2565b601f1984166106818661046e565b5f5b828110156106a857848901518255600182019150602085019450602081019050610683565b868310156106c557848901516106c1601f8916826105d4565b8355505b6001600288020188555050505b50505050505056fea264697066735822122060572cbb12b0c0b5f46d72000225c4efddd6530324d63f5881d689385ffb154164736f6c63430008150033",
  "immutableReferences": {},
  "source": "// SPDX-License-Identifier: MIT\n\npragma solidity ^0.8.9;\n\ncontract HelloWorld{\n    string public greet = \"Hello world\";\n\n    address public sender;\n    uint public amount;\n\n    function pay() external payable{\n        sender = msg.sender;\n        amount = msg.value;\n    }\n\n    function fail() external{\n        require(false, \"FAIILED HERE\");\n        greet=\"\";\n    }\n}",
  "sourcePath": "/home/stephen/Development/Code/project/DavenbarnChain2023/backend/contracts/HelloWorld.sol",
  "compiler": {
    "name": "solc",
    "version": "0.8.21+commit.d9974bed.Emscripten.clang"
  },
  "schemaVersion": "3.4.16",
  "updatedAt": "2023-11-06T17:15:16.339Z",
  "devdoc": {
    "kind": "dev",
    "methods": {},
    "version": 1
  },
  "userdoc": {
    "kind": "user",
    "methods": {},
    "version": 1
  }
}